{
  "contractName": "Land",
  "abi": [
    {
      "inputs": [
        {
          "internalType": "string",
          "name": "_name",
          "type": "string"
        },
        {
          "internalType": "string",
          "name": "_symbol",
          "type": "string"
        },
        {
          "internalType": "uint256",
          "name": "_cost",
          "type": "uint256"
        }
      ],
      "stateMutability": "nonpayable",
      "type": "constructor"
    },
    {
      "anonymous": false,
      "inputs": [
        {
          "indexed": true,
          "internalType": "address",
          "name": "owner",
          "type": "address"
        },
        {
          "indexed": true,
          "internalType": "address",
          "name": "approved",
          "type": "address"
        },
        {
          "indexed": true,
          "internalType": "uint256",
          "name": "tokenId",
          "type": "uint256"
        }
      ],
      "name": "Approval",
      "type": "event"
    },
    {
      "anonymous": false,
      "inputs": [
        {
          "indexed": true,
          "internalType": "address",
          "name": "owner",
          "type": "address"
        },
        {
          "indexed": true,
          "internalType": "address",
          "name": "operator",
          "type": "address"
        },
        {
          "indexed": false,
          "internalType": "bool",
          "name": "approved",
          "type": "bool"
        }
      ],
      "name": "ApprovalForAll",
      "type": "event"
    },
    {
      "anonymous": false,
      "inputs": [
        {
          "indexed": true,
          "internalType": "address",
          "name": "from",
          "type": "address"
        },
        {
          "indexed": true,
          "internalType": "address",
          "name": "to",
          "type": "address"
        },
        {
          "indexed": true,
          "internalType": "uint256",
          "name": "tokenId",
          "type": "uint256"
        }
      ],
      "name": "Transfer",
      "type": "event"
    },
    {
      "inputs": [
        {
          "internalType": "address",
          "name": "to",
          "type": "address"
        },
        {
          "internalType": "uint256",
          "name": "tokenId",
          "type": "uint256"
        }
      ],
      "name": "approve",
      "outputs": [],
      "stateMutability": "nonpayable",
      "type": "function"
    },
    {
      "inputs": [
        {
          "internalType": "address",
          "name": "owner",
          "type": "address"
        }
      ],
      "name": "balanceOf",
      "outputs": [
        {
          "internalType": "uint256",
          "name": "",
          "type": "uint256"
        }
      ],
      "stateMutability": "view",
      "type": "function",
      "constant": true
    },
    {
      "inputs": [
        {
          "internalType": "uint256",
          "name": "",
          "type": "uint256"
        }
      ],
      "name": "buildings",
      "outputs": [
        {
          "internalType": "string",
          "name": "name",
          "type": "string"
        },
        {
          "internalType": "address",
          "name": "owner",
          "type": "address"
        },
        {
          "internalType": "int256",
          "name": "posX",
          "type": "int256"
        },
        {
          "internalType": "int256",
          "name": "posY",
          "type": "int256"
        },
        {
          "internalType": "int256",
          "name": "posZ",
          "type": "int256"
        },
        {
          "internalType": "uint256",
          "name": "sizeX",
          "type": "uint256"
        },
        {
          "internalType": "uint256",
          "name": "sizeY",
          "type": "uint256"
        },
        {
          "internalType": "uint256",
          "name": "sizeZ",
          "type": "uint256"
        }
      ],
      "stateMutability": "view",
      "type": "function",
      "constant": true
    },
    {
      "inputs": [],
      "name": "cost",
      "outputs": [
        {
          "internalType": "uint256",
          "name": "",
          "type": "uint256"
        }
      ],
      "stateMutability": "view",
      "type": "function",
      "constant": true
    },
    {
      "inputs": [
        {
          "internalType": "uint256",
          "name": "tokenId",
          "type": "uint256"
        }
      ],
      "name": "getApproved",
      "outputs": [
        {
          "internalType": "address",
          "name": "",
          "type": "address"
        }
      ],
      "stateMutability": "view",
      "type": "function",
      "constant": true
    },
    {
      "inputs": [
        {
          "internalType": "address",
          "name": "owner",
          "type": "address"
        },
        {
          "internalType": "address",
          "name": "operator",
          "type": "address"
        }
      ],
      "name": "isApprovedForAll",
      "outputs": [
        {
          "internalType": "bool",
          "name": "",
          "type": "bool"
        }
      ],
      "stateMutability": "view",
      "type": "function",
      "constant": true
    },
    {
      "inputs": [],
      "name": "maxSupply",
      "outputs": [
        {
          "internalType": "uint256",
          "name": "",
          "type": "uint256"
        }
      ],
      "stateMutability": "view",
      "type": "function",
      "constant": true
    },
    {
      "inputs": [],
      "name": "name",
      "outputs": [
        {
          "internalType": "string",
          "name": "",
          "type": "string"
        }
      ],
      "stateMutability": "view",
      "type": "function",
      "constant": true
    },
    {
      "inputs": [
        {
          "internalType": "uint256",
          "name": "tokenId",
          "type": "uint256"
        }
      ],
      "name": "ownerOf",
      "outputs": [
        {
          "internalType": "address",
          "name": "",
          "type": "address"
        }
      ],
      "stateMutability": "view",
      "type": "function",
      "constant": true
    },
    {
      "inputs": [
        {
          "internalType": "address",
          "name": "operator",
          "type": "address"
        },
        {
          "internalType": "bool",
          "name": "approved",
          "type": "bool"
        }
      ],
      "name": "setApprovalForAll",
      "outputs": [],
      "stateMutability": "nonpayable",
      "type": "function"
    },
    {
      "inputs": [
        {
          "internalType": "bytes4",
          "name": "interfaceId",
          "type": "bytes4"
        }
      ],
      "name": "supportsInterface",
      "outputs": [
        {
          "internalType": "bool",
          "name": "",
          "type": "bool"
        }
      ],
      "stateMutability": "view",
      "type": "function",
      "constant": true
    },
    {
      "inputs": [],
      "name": "symbol",
      "outputs": [
        {
          "internalType": "string",
          "name": "",
          "type": "string"
        }
      ],
      "stateMutability": "view",
      "type": "function",
      "constant": true
    },
    {
      "inputs": [
        {
          "internalType": "uint256",
          "name": "tokenId",
          "type": "uint256"
        }
      ],
      "name": "tokenURI",
      "outputs": [
        {
          "internalType": "string",
          "name": "",
          "type": "string"
        }
      ],
      "stateMutability": "view",
      "type": "function",
      "constant": true
    },
    {
      "inputs": [],
      "name": "totalSupply",
      "outputs": [
        {
          "internalType": "uint256",
          "name": "",
          "type": "uint256"
        }
      ],
      "stateMutability": "view",
      "type": "function",
      "constant": true
    },
    {
      "inputs": [
        {
          "internalType": "uint256",
          "name": "_id",
          "type": "uint256"
        }
      ],
      "name": "mint",
      "outputs": [],
      "stateMutability": "payable",
      "type": "function",
      "payable": true
    },
    {
      "inputs": [
        {
          "internalType": "address",
          "name": "from",
          "type": "address"
        },
        {
          "internalType": "address",
          "name": "to",
          "type": "address"
        },
        {
          "internalType": "uint256",
          "name": "tokenId",
          "type": "uint256"
        }
      ],
      "name": "transferFrom",
      "outputs": [],
      "stateMutability": "nonpayable",
      "type": "function"
    },
    {
      "inputs": [
        {
          "internalType": "address",
          "name": "from",
          "type": "address"
        },
        {
          "internalType": "address",
          "name": "to",
          "type": "address"
        },
        {
          "internalType": "uint256",
          "name": "tokenId",
          "type": "uint256"
        }
      ],
      "name": "safeTransferFrom",
      "outputs": [],
      "stateMutability": "nonpayable",
      "type": "function"
    },
    {
      "inputs": [
        {
          "internalType": "address",
          "name": "from",
          "type": "address"
        },
        {
          "internalType": "address",
          "name": "to",
          "type": "address"
        },
        {
          "internalType": "uint256",
          "name": "tokenId",
          "type": "uint256"
        },
        {
          "internalType": "bytes",
          "name": "_data",
          "type": "bytes"
        }
      ],
      "name": "safeTransferFrom",
      "outputs": [],
      "stateMutability": "nonpayable",
      "type": "function"
    },
    {
      "inputs": [],
      "name": "getBuildings",
      "outputs": [
        {
          "components": [
            {
              "internalType": "string",
              "name": "name",
              "type": "string"
            },
            {
              "internalType": "address",
              "name": "owner",
              "type": "address"
            },
            {
              "internalType": "int256",
              "name": "posX",
              "type": "int256"
            },
            {
              "internalType": "int256",
              "name": "posY",
              "type": "int256"
            },
            {
              "internalType": "int256",
              "name": "posZ",
              "type": "int256"
            },
            {
              "internalType": "uint256",
              "name": "sizeX",
              "type": "uint256"
            },
            {
              "internalType": "uint256",
              "name": "sizeY",
              "type": "uint256"
            },
            {
              "internalType": "uint256",
              "name": "sizeZ",
              "type": "uint256"
            }
          ],
          "internalType": "struct Land.Building[]",
          "name": "",
          "type": "tuple[]"
        }
      ],
      "stateMutability": "view",
      "type": "function",
      "constant": true
    },
    {
      "inputs": [
        {
          "internalType": "uint256",
          "name": "_id",
          "type": "uint256"
        }
      ],
      "name": "getBuilding",
      "outputs": [
        {
          "components": [
            {
              "internalType": "string",
              "name": "name",
              "type": "string"
            },
            {
              "internalType": "address",
              "name": "owner",
              "type": "address"
            },
            {
              "internalType": "int256",
              "name": "posX",
              "type": "int256"
            },
            {
              "internalType": "int256",
              "name": "posY",
              "type": "int256"
            },
            {
              "internalType": "int256",
              "name": "posZ",
              "type": "int256"
            },
            {
              "internalType": "uint256",
              "name": "sizeX",
              "type": "uint256"
            },
            {
              "internalType": "uint256",
              "name": "sizeY",
              "type": "uint256"
            },
            {
              "internalType": "uint256",
              "name": "sizeZ",
              "type": "uint256"
            }
          ],
          "internalType": "struct Land.Building",
          "name": "",
          "type": "tuple"
        }
      ],
      "stateMutability": "view",
      "type": "function",
      "constant": true
    }
  ],
  "bytecode": "0x6080604052670de0b6b3a7640000600655600560075560006008553480156200002757600080fd5b5060405162003c2938038062003c2983398181016040528101906200004d919062000a20565b828281600090805190602001906200006792919062000798565b5080600190805190602001906200008092919062000798565b5050508060068190555060096040518061010001604052806040518060400160405280600981526020017f436974792048616c6c00000000000000000000000000000000000000000000008152508152602001600073ffffffffffffffffffffffffffffffffffffffff168152602001600081526020016000815260200160008152602001600a8152602001600a8152602001600a815250908060018154018082558091505060019003906000526020600020906008020160009091909190915060008201518160000190805190602001906200015f92919062000798565b5060208201518160010160006101000a81548173ffffffffffffffffffffffffffffffffffffffff021916908373ffffffffffffffffffffffffffffffffffffffff16021790555060408201518160020155606082015181600301556080820151816004015560a0820151816005015560c0820151816006015560e08201518160070155505060096040518061010001604052806040518060400160405280600781526020017f5374616469756d000000000000000000000000000000000000000000000000008152508152602001600073ffffffffffffffffffffffffffffffffffffffff16815260200160008152602001600a815260200160008152602001600a815260200160058152602001600381525090806001815401808255809150506001900390600052602060002090600802016000909190919091506000820151816000019080519060200190620002ba92919062000798565b5060208201518160010160006101000a81548173ffffffffffffffffffffffffffffffffffffffff021916908373ffffffffffffffffffffffffffffffffffffffff16021790555060408201518160020155606082015181600301556080820151816004015560a0820151816005015560c0820151816006015560e08201518160070155505060096040518061010001604052806040518060400160405280600a81526020017f556e6976657273697479000000000000000000000000000000000000000000008152508152602001600073ffffffffffffffffffffffffffffffffffffffff168152602001600081526020017ffffffffffffffffffffffffffffffffffffffffffffffffffffffffffffffff6815260200160008152602001600a8152602001600581526020016003815250908060018154018082558091505060019003906000526020600020906008020160009091909190915060008201518160000190805190602001906200043492919062000798565b5060208201518160010160006101000a81548173ffffffffffffffffffffffffffffffffffffffff021916908373ffffffffffffffffffffffffffffffffffffffff16021790555060408201518160020155606082015181600301556080820151816004015560a0820151816005015560c0820151816006015560e08201518160070155505060096040518061010001604052806040518060400160405280600f81526020017f53686f70696e6720506c617a61203100000000000000000000000000000000008152508152602001600073ffffffffffffffffffffffffffffffffffffffff168152602001600a8152602001600081526020016000815260200160058152602001601981526020016005815250908060018154018082558091505060019003906000526020600020906008020160009091909190915060008201518160000190805190602001906200058f92919062000798565b5060208201518160010160006101000a81548173ffffffffffffffffffffffffffffffffffffffff021916908373ffffffffffffffffffffffffffffffffffffffff16021790555060408201518160020155606082015181600301556080820151816004015560a0820151816005015560c0820151816006015560e08201518160070155505060096040518061010001604052806040518060400160405280601081526020017f53686f7070696e6720506c617a612032000000000000000000000000000000008152508152602001600073ffffffffffffffffffffffffffffffffffffffff1681526020017ffffffffffffffffffffffffffffffffffffffffffffffffffffffffffffffff68152602001600081526020016000815260200160058152602001601981526020016005815250908060018154018082558091505060019003906000526020600020906008020160009091909190915060008201518160000190805190602001906200070992919062000798565b5060208201518160010160006101000a81548173ffffffffffffffffffffffffffffffffffffffff021916908373ffffffffffffffffffffffffffffffffffffffff16021790555060408201518160020155606082015181600301556080820151816004015560a0820151816005015560c0820151816006015560e08201518160070155505050505062000b1f565b828054620007a69062000ae9565b90600052602060002090601f016020900481019282620007ca576000855562000816565b82601f10620007e557805160ff191683800117855562000816565b8280016001018555821562000816579182015b8281111562000815578251825591602001919060010190620007f8565b5b50905062000825919062000829565b5090565b5b80821115620008445760008160009055506001016200082a565b5090565b6000604051905090565b600080fd5b600080fd5b600080fd5b600080fd5b6000601f19601f8301169050919050565b7f4e487b7100000000000000000000000000000000000000000000000000000000600052604160045260246000fd5b620008b18262000866565b810181811067ffffffffffffffff82111715620008d357620008d262000877565b5b80604052505050565b6000620008e862000848565b9050620008f68282620008a6565b919050565b600067ffffffffffffffff82111562000919576200091862000877565b5b620009248262000866565b9050602081019050919050565b60005b838110156200095157808201518184015260208101905062000934565b8381111562000961576000848401525b50505050565b60006200097e6200097884620008fb565b620008dc565b9050828152602081018484840111156200099d576200099c62000861565b5b620009aa84828562000931565b509392505050565b600082601f830112620009ca57620009c96200085c565b5b8151620009dc84826020860162000967565b91505092915050565b6000819050919050565b620009fa81620009e5565b811462000a0657600080fd5b50565b60008151905062000a1a81620009ef565b92915050565b60008060006060848603121562000a3c5762000a3b62000852565b5b600084015167ffffffffffffffff81111562000a5d5762000a5c62000857565b5b62000a6b86828701620009b2565b935050602084015167ffffffffffffffff81111562000a8f5762000a8e62000857565b5b62000a9d86828701620009b2565b925050604062000ab08682870162000a09565b9150509250925092565b7f4e487b7100000000000000000000000000000000000000000000000000000000600052602260045260246000fd5b6000600282049050600182168062000b0257607f821691505b6020821081141562000b195762000b1862000aba565b5b50919050565b6130fa8062000b2f6000396000f3fe60806040526004361061011f5760003560e01c806370a08231116100a0578063b88d4fde11610064578063b88d4fde14610405578063c87b56dd1461042e578063d5abeb011461046b578063d9cf6a2614610496578063e985e9c5146104c15761011f565b806370a082311461031b57806395d89b41146103585780639dfd8b0214610383578063a0712d68146103c0578063a22cb465146103dc5761011f565b806318160ddd116100e757806318160ddd1461021d57806323b872dd1461024857806342842e0e146102715780634c96a0621461029a5780636352211e146102de5761011f565b806301ffc9a71461012457806306fdde0314610161578063081812fc1461018c578063095ea7b3146101c957806313faede6146101f2575b600080fd5b34801561013057600080fd5b5061014b60048036038101906101469190611ede565b6104fe565b6040516101589190611f26565b60405180910390f35b34801561016d57600080fd5b506101766105e0565b6040516101839190611fda565b60405180910390f35b34801561019857600080fd5b506101b360048036038101906101ae9190612032565b610672565b6040516101c091906120a0565b60405180910390f35b3480156101d557600080fd5b506101f060048036038101906101eb91906120e7565b6106b8565b005b3480156101fe57600080fd5b506102076107d0565b6040516102149190612136565b60405180910390f35b34801561022957600080fd5b506102326107d6565b60405161023f9190612136565b60405180910390f35b34801561025457600080fd5b5061026f600480360381019061026a9190612151565b6107dc565b005b34801561027d57600080fd5b5061029860048036038101906102939190612151565b6108ac565b005b3480156102a657600080fd5b506102c160048036038101906102bc9190612032565b6108cc565b6040516102d59897969594939291906121bd565b60405180910390f35b3480156102ea57600080fd5b5061030560048036038101906103009190612032565b6109cc565b60405161031291906120a0565b60405180910390f35b34801561032757600080fd5b50610342600480360381019061033d9190612242565b610a7e565b60405161034f9190612136565b60405180910390f35b34801561036457600080fd5b5061036d610b36565b60405161037a9190611fda565b60405180910390f35b34801561038f57600080fd5b506103aa60048036038101906103a59190612032565b610bc8565b6040516103b79190612396565b60405180910390f35b6103da60048036038101906103d59190612032565b610d35565b005b3480156103e857600080fd5b5061040360048036038101906103fe91906123e4565b610e7a565b005b34801561041157600080fd5b5061042c60048036038101906104279190612559565b610e90565b005b34801561043a57600080fd5b5061045560048036038101906104509190612032565b610f5b565b6040516104629190611fda565b60405180910390f35b34801561047757600080fd5b50610480610fc3565b60405161048d9190612136565b60405180910390f35b3480156104a257600080fd5b506104ab610fc9565b6040516104b8919061274e565b60405180910390f35b3480156104cd57600080fd5b506104e860048036038101906104e39190612770565b61114d565b6040516104f59190611f26565b60405180910390f35b60007f80ac58cd000000000000000000000000000000000000000000000000000000007bffffffffffffffffffffffffffffffffffffffffffffffffffffffff1916827bffffffffffffffffffffffffffffffffffffffffffffffffffffffff191614806105c957507f5b5e139f000000000000000000000000000000000000000000000000000000007bffffffffffffffffffffffffffffffffffffffffffffffffffffffff1916827bffffffffffffffffffffffffffffffffffffffffffffffffffffffff1916145b806105d957506105d8826111e1565b5b9050919050565b6060600080546105ef906127df565b80601f016020809104026020016040519081016040528092919081815260200182805461061b906127df565b80156106685780601f1061063d57610100808354040283529160200191610668565b820191906000526020600020905b81548152906001019060200180831161064b57829003601f168201915b5050505050905090565b600061067d8261124b565b6004600083815260200190815260200160002060009054906101000a900473ffffffffffffffffffffffffffffffffffffffff169050919050565b60006106c3826109cc565b90508073ffffffffffffffffffffffffffffffffffffffff168373ffffffffffffffffffffffffffffffffffffffff161415610734576040517f08c379a000000000000000000000000000000000000000000000000000000000815260040161072b90612883565b60405180910390fd5b8073ffffffffffffffffffffffffffffffffffffffff16610753611296565b73ffffffffffffffffffffffffffffffffffffffff16148061078257506107818161077c611296565b61114d565b5b6107c1576040517f08c379a00000000000000000000000000000000000000000000000000000000081526004016107b890612915565b60405180910390fd5b6107cb838361129e565b505050565b60065481565b60085481565b6107ed6107e7611296565b82611357565b61082c576040517f08c379a0000000000000000000000000000000000000000000000000000000008152600401610823906129a7565b60405180910390fd5b81600960018361083c91906129f6565b8154811061084d5761084c612a2a565b5b906000526020600020906008020160010160006101000a81548173ffffffffffffffffffffffffffffffffffffffff021916908373ffffffffffffffffffffffffffffffffffffffff1602179055506108a78383836113ec565b505050565b6108c783838360405180602001604052806000815250610e90565b505050565b600981815481106108dc57600080fd5b90600052602060002090600802016000915090508060000180546108ff906127df565b80601f016020809104026020016040519081016040528092919081815260200182805461092b906127df565b80156109785780601f1061094d57610100808354040283529160200191610978565b820191906000526020600020905b81548152906001019060200180831161095b57829003601f168201915b5050505050908060010160009054906101000a900473ffffffffffffffffffffffffffffffffffffffff16908060020154908060030154908060040154908060050154908060060154908060070154905088565b6000806002600084815260200190815260200160002060009054906101000a900473ffffffffffffffffffffffffffffffffffffffff169050600073ffffffffffffffffffffffffffffffffffffffff168173ffffffffffffffffffffffffffffffffffffffff161415610a75576040517f08c379a0000000000000000000000000000000000000000000000000000000008152600401610a6c90612aa5565b60405180910390fd5b80915050919050565b60008073ffffffffffffffffffffffffffffffffffffffff168273ffffffffffffffffffffffffffffffffffffffff161415610aef576040517f08c379a0000000000000000000000000000000000000000000000000000000008152600401610ae690612b37565b60405180910390fd5b600360008373ffffffffffffffffffffffffffffffffffffffff1673ffffffffffffffffffffffffffffffffffffffff168152602001908152602001600020549050919050565b606060018054610b45906127df565b80601f0160208091040260200160405190810160405280929190818152602001828054610b71906127df565b8015610bbe5780601f10610b9357610100808354040283529160200191610bbe565b820191906000526020600020905b815481529060010190602001808311610ba157829003601f168201915b5050505050905090565b610bd0611e17565b6009600183610bdf91906129f6565b81548110610bf057610bef612a2a565b5b906000526020600020906008020160405180610100016040529081600082018054610c1a906127df565b80601f0160208091040260200160405190810160405280929190818152602001828054610c46906127df565b8015610c935780601f10610c6857610100808354040283529160200191610c93565b820191906000526020600020905b815481529060010190602001808311610c7657829003601f168201915b505050505081526020016001820160009054906101000a900473ffffffffffffffffffffffffffffffffffffffff1673ffffffffffffffffffffffffffffffffffffffff1673ffffffffffffffffffffffffffffffffffffffff16815260200160028201548152602001600382015481526020016004820154815260200160058201548152602001600682015481526020016007820154815250509050919050565b60006008549050600754811115610d4b57600080fd5b600073ffffffffffffffffffffffffffffffffffffffff166009600184610d7291906129f6565b81548110610d8357610d82612a2a565b5b906000526020600020906008020160010160009054906101000a900473ffffffffffffffffffffffffffffffffffffffff1673ffffffffffffffffffffffffffffffffffffffff1614610dd557600080fd5b600654341015610de457600080fd5b336009600184610df491906129f6565b81548110610e0557610e04612a2a565b5b906000526020600020906008020160010160006101000a81548173ffffffffffffffffffffffffffffffffffffffff021916908373ffffffffffffffffffffffffffffffffffffffff16021790555060086000815480929190610e6790612b57565b9190505550610e763383611653565b5050565b610e8c610e85611296565b8383611671565b5050565b610e9a8483611357565b610ed9576040517f08c379a0000000000000000000000000000000000000000000000000000000008152600401610ed0906129a7565b60405180910390fd5b826009600184610ee991906129f6565b81548110610efa57610ef9612a2a565b5b906000526020600020906008020160010160006101000a81548173ffffffffffffffffffffffffffffffffffffffff021916908373ffffffffffffffffffffffffffffffffffffffff160217905550610f55848484846117de565b50505050565b6060610f668261124b565b6000610f7061183a565b90506000815111610f905760405180602001604052806000815250610fbb565b80610f9a84611851565b604051602001610fab929190612bdc565b6040516020818303038152906040525b915050919050565b60075481565b60606009805480602002602001604051908101604052809291908181526020016000905b82821015611144578382906000526020600020906008020160405180610100016040529081600082018054611021906127df565b80601f016020809104026020016040519081016040528092919081815260200182805461104d906127df565b801561109a5780601f1061106f5761010080835404028352916020019161109a565b820191906000526020600020905b81548152906001019060200180831161107d57829003601f168201915b505050505081526020016001820160009054906101000a900473ffffffffffffffffffffffffffffffffffffffff1673ffffffffffffffffffffffffffffffffffffffff1673ffffffffffffffffffffffffffffffffffffffff168152602001600282015481526020016003820154815260200160048201548152602001600582015481526020016006820154815260200160078201548152505081526020019060010190610fed565b50505050905090565b6000600560008473ffffffffffffffffffffffffffffffffffffffff1673ffffffffffffffffffffffffffffffffffffffff16815260200190815260200160002060008373ffffffffffffffffffffffffffffffffffffffff1673ffffffffffffffffffffffffffffffffffffffff16815260200190815260200160002060009054906101000a900460ff16905092915050565b60007f01ffc9a7000000000000000000000000000000000000000000000000000000007bffffffffffffffffffffffffffffffffffffffffffffffffffffffff1916827bffffffffffffffffffffffffffffffffffffffffffffffffffffffff1916149050919050565b611254816119b2565b611293576040517f08c379a000000000000000000000000000000000000000000000000000000000815260040161128a90612aa5565b60405180910390fd5b50565b600033905090565b816004600083815260200190815260200160002060006101000a81548173ffffffffffffffffffffffffffffffffffffffff021916908373ffffffffffffffffffffffffffffffffffffffff160217905550808273ffffffffffffffffffffffffffffffffffffffff16611311836109cc565b73ffffffffffffffffffffffffffffffffffffffff167f8c5be1e5ebec7d5bd14f71427d1e84f3dd0314c0f7b2291e5b200ac8c7c3b92560405160405180910390a45050565b600080611363836109cc565b90508073ffffffffffffffffffffffffffffffffffffffff168473ffffffffffffffffffffffffffffffffffffffff1614806113a557506113a4818561114d565b5b806113e357508373ffffffffffffffffffffffffffffffffffffffff166113cb84610672565b73ffffffffffffffffffffffffffffffffffffffff16145b91505092915050565b8273ffffffffffffffffffffffffffffffffffffffff1661140c826109cc565b73ffffffffffffffffffffffffffffffffffffffff1614611462576040517f08c379a000000000000000000000000000000000000000000000000000000000815260040161145990612c72565b60405180910390fd5b600073ffffffffffffffffffffffffffffffffffffffff168273ffffffffffffffffffffffffffffffffffffffff1614156114d2576040517f08c379a00000000000000000000000000000000000000000000000000000000081526004016114c990612d04565b60405180910390fd5b6114dd838383611a1e565b6114e860008261129e565b6001600360008573ffffffffffffffffffffffffffffffffffffffff1673ffffffffffffffffffffffffffffffffffffffff168152602001908152602001600020600082825461153891906129f6565b925050819055506001600360008473ffffffffffffffffffffffffffffffffffffffff1673ffffffffffffffffffffffffffffffffffffffff168152602001908152602001600020600082825461158f9190612d24565b92505081905550816002600083815260200190815260200160002060006101000a81548173ffffffffffffffffffffffffffffffffffffffff021916908373ffffffffffffffffffffffffffffffffffffffff160217905550808273ffffffffffffffffffffffffffffffffffffffff168473ffffffffffffffffffffffffffffffffffffffff167fddf252ad1be2c89b69c2b068fc378daa952ba7f163c4a11628f55a4df523b3ef60405160405180910390a461164e838383611a23565b505050565b61166d828260405180602001604052806000815250611a28565b5050565b8173ffffffffffffffffffffffffffffffffffffffff168373ffffffffffffffffffffffffffffffffffffffff1614156116e0576040517f08c379a00000000000000000000000000000000000000000000000000000000081526004016116d790612dc6565b60405180910390fd5b80600560008573ffffffffffffffffffffffffffffffffffffffff1673ffffffffffffffffffffffffffffffffffffffff16815260200190815260200160002060008473ffffffffffffffffffffffffffffffffffffffff1673ffffffffffffffffffffffffffffffffffffffff16815260200190815260200160002060006101000a81548160ff0219169083151502179055508173ffffffffffffffffffffffffffffffffffffffff168373ffffffffffffffffffffffffffffffffffffffff167f17307eab39ab6107e8899845ad3d59bd9653f200f220920489ca2b5937696c31836040516117d19190611f26565b60405180910390a3505050565b6117e98484846113ec565b6117f584848484611a83565b611834576040517f08c379a000000000000000000000000000000000000000000000000000000000815260040161182b90612e58565b60405180910390fd5b50505050565b606060405180602001604052806000815250905090565b60606000821415611899576040518060400160405280600181526020017f300000000000000000000000000000000000000000000000000000000000000081525090506119ad565b600082905060005b600082146118cb5780806118b490612b57565b915050600a826118c49190612ea7565b91506118a1565b60008167ffffffffffffffff8111156118e7576118e661242e565b5b6040519080825280601f01601f1916602001820160405280156119195781602001600182028036833780820191505090505b5090505b600085146119a65760018261193291906129f6565b9150600a856119419190612ed8565b603061194d9190612d24565b60f81b81838151811061196357611962612a2a565b5b60200101907effffffffffffffffffffffffffffffffffffffffffffffffffffffffffffff1916908160001a905350600a8561199f9190612ea7565b945061191d565b8093505050505b919050565b60008073ffffffffffffffffffffffffffffffffffffffff166002600084815260200190815260200160002060009054906101000a900473ffffffffffffffffffffffffffffffffffffffff1673ffffffffffffffffffffffffffffffffffffffff1614159050919050565b505050565b505050565b611a328383611c1a565b611a3f6000848484611a83565b611a7e576040517f08c379a0000000000000000000000000000000000000000000000000000000008152600401611a7590612e58565b60405180910390fd5b505050565b6000611aa48473ffffffffffffffffffffffffffffffffffffffff16611df4565b15611c0d578373ffffffffffffffffffffffffffffffffffffffff1663150b7a02611acd611296565b8786866040518563ffffffff1660e01b8152600401611aef9493929190612f5e565b602060405180830381600087803b158015611b0957600080fd5b505af1925050508015611b3a57506040513d601f19601f82011682018060405250810190611b379190612fbf565b60015b611bbd573d8060008114611b6a576040519150601f19603f3d011682016040523d82523d6000602084013e611b6f565b606091505b50600081511415611bb5576040517f08c379a0000000000000000000000000000000000000000000000000000000008152600401611bac90612e58565b60405180910390fd5b805181602001fd5b63150b7a0260e01b7bffffffffffffffffffffffffffffffffffffffffffffffffffffffff1916817bffffffffffffffffffffffffffffffffffffffffffffffffffffffff191614915050611c12565b600190505b949350505050565b600073ffffffffffffffffffffffffffffffffffffffff168273ffffffffffffffffffffffffffffffffffffffff161415611c8a576040517f08c379a0000000000000000000000000000000000000000000000000000000008152600401611c8190613038565b60405180910390fd5b611c93816119b2565b15611cd3576040517f08c379a0000000000000000000000000000000000000000000000000000000008152600401611cca906130a4565b60405180910390fd5b611cdf60008383611a1e565b6001600360008473ffffffffffffffffffffffffffffffffffffffff1673ffffffffffffffffffffffffffffffffffffffff1681526020019081526020016000206000828254611d2f9190612d24565b92505081905550816002600083815260200190815260200160002060006101000a81548173ffffffffffffffffffffffffffffffffffffffff021916908373ffffffffffffffffffffffffffffffffffffffff160217905550808273ffffffffffffffffffffffffffffffffffffffff16600073ffffffffffffffffffffffffffffffffffffffff167fddf252ad1be2c89b69c2b068fc378daa952ba7f163c4a11628f55a4df523b3ef60405160405180910390a4611df060008383611a23565b5050565b6000808273ffffffffffffffffffffffffffffffffffffffff163b119050919050565b60405180610100016040528060608152602001600073ffffffffffffffffffffffffffffffffffffffff1681526020016000815260200160008152602001600081526020016000815260200160008152602001600081525090565b6000604051905090565b600080fd5b600080fd5b60007fffffffff0000000000000000000000000000000000000000000000000000000082169050919050565b611ebb81611e86565b8114611ec657600080fd5b50565b600081359050611ed881611eb2565b92915050565b600060208284031215611ef457611ef3611e7c565b5b6000611f0284828501611ec9565b91505092915050565b60008115159050919050565b611f2081611f0b565b82525050565b6000602082019050611f3b6000830184611f17565b92915050565b600081519050919050565b600082825260208201905092915050565b60005b83811015611f7b578082015181840152602081019050611f60565b83811115611f8a576000848401525b50505050565b6000601f19601f8301169050919050565b6000611fac82611f41565b611fb68185611f4c565b9350611fc6818560208601611f5d565b611fcf81611f90565b840191505092915050565b60006020820190508181036000830152611ff48184611fa1565b905092915050565b6000819050919050565b61200f81611ffc565b811461201a57600080fd5b50565b60008135905061202c81612006565b92915050565b60006020828403121561204857612047611e7c565b5b60006120568482850161201d565b91505092915050565b600073ffffffffffffffffffffffffffffffffffffffff82169050919050565b600061208a8261205f565b9050919050565b61209a8161207f565b82525050565b60006020820190506120b56000830184612091565b92915050565b6120c48161207f565b81146120cf57600080fd5b50565b6000813590506120e1816120bb565b92915050565b600080604083850312156120fe576120fd611e7c565b5b600061210c858286016120d2565b925050602061211d8582860161201d565b9150509250929050565b61213081611ffc565b82525050565b600060208201905061214b6000830184612127565b92915050565b60008060006060848603121561216a57612169611e7c565b5b6000612178868287016120d2565b9350506020612189868287016120d2565b925050604061219a8682870161201d565b9150509250925092565b6000819050919050565b6121b7816121a4565b82525050565b60006101008201905081810360008301526121d8818b611fa1565b90506121e7602083018a612091565b6121f460408301896121ae565b61220160608301886121ae565b61220e60808301876121ae565b61221b60a0830186612127565b61222860c0830185612127565b61223560e0830184612127565b9998505050505050505050565b60006020828403121561225857612257611e7c565b5b6000612266848285016120d2565b91505092915050565b600082825260208201905092915050565b600061228b82611f41565b612295818561226f565b93506122a5818560208601611f5d565b6122ae81611f90565b840191505092915050565b6122c28161207f565b82525050565b6122d1816121a4565b82525050565b6122e081611ffc565b82525050565b60006101008301600083015184820360008601526123048282612280565b915050602083015161231960208601826122b9565b50604083015161232c60408601826122c8565b50606083015161233f60608601826122c8565b50608083015161235260808601826122c8565b5060a083015161236560a08601826122d7565b5060c083015161237860c08601826122d7565b5060e083015161238b60e08601826122d7565b508091505092915050565b600060208201905081810360008301526123b081846122e6565b905092915050565b6123c181611f0b565b81146123cc57600080fd5b50565b6000813590506123de816123b8565b92915050565b600080604083850312156123fb576123fa611e7c565b5b6000612409858286016120d2565b925050602061241a858286016123cf565b9150509250929050565b600080fd5b600080fd5b7f4e487b7100000000000000000000000000000000000000000000000000000000600052604160045260246000fd5b61246682611f90565b810181811067ffffffffffffffff821117156124855761248461242e565b5b80604052505050565b6000612498611e72565b90506124a4828261245d565b919050565b600067ffffffffffffffff8211156124c4576124c361242e565b5b6124cd82611f90565b9050602081019050919050565b82818337600083830152505050565b60006124fc6124f7846124a9565b61248e565b90508281526020810184848401111561251857612517612429565b5b6125238482856124da565b509392505050565b600082601f8301126125405761253f612424565b5b81356125508482602086016124e9565b91505092915050565b6000806000806080858703121561257357612572611e7c565b5b6000612581878288016120d2565b9450506020612592878288016120d2565b93505060406125a38782880161201d565b925050606085013567ffffffffffffffff8111156125c4576125c3611e81565b5b6125d08782880161252b565b91505092959194509250565b600081519050919050565b600082825260208201905092915050565b6000819050602082019050919050565b60006101008301600083015184820360008601526126268282612280565b915050602083015161263b60208601826122b9565b50604083015161264e60408601826122c8565b50606083015161266160608601826122c8565b50608083015161267460808601826122c8565b5060a083015161268760a08601826122d7565b5060c083015161269a60c08601826122d7565b5060e08301516126ad60e08601826122d7565b508091505092915050565b60006126c48383612608565b905092915050565b6000602082019050919050565b60006126e4826125dc565b6126ee81856125e7565b935083602082028501612700856125f8565b8060005b8581101561273c578484038952815161271d85826126b8565b9450612728836126cc565b925060208a01995050600181019050612704565b50829750879550505050505092915050565b6000602082019050818103600083015261276881846126d9565b905092915050565b6000806040838503121561278757612786611e7c565b5b6000612795858286016120d2565b92505060206127a6858286016120d2565b9150509250929050565b7f4e487b7100000000000000000000000000000000000000000000000000000000600052602260045260246000fd5b600060028204905060018216806127f757607f821691505b6020821081141561280b5761280a6127b0565b5b50919050565b7f4552433732313a20617070726f76616c20746f2063757272656e74206f776e6560008201527f7200000000000000000000000000000000000000000000000000000000000000602082015250565b600061286d602183611f4c565b915061287882612811565b604082019050919050565b6000602082019050818103600083015261289c81612860565b9050919050565b7f4552433732313a20617070726f76652063616c6c6572206973206e6f7420746f60008201527f6b656e206f776e6572206e6f7220617070726f76656420666f7220616c6c0000602082015250565b60006128ff603e83611f4c565b915061290a826128a3565b604082019050919050565b6000602082019050818103600083015261292e816128f2565b9050919050565b7f596f7520617265206e6f7420746865206f776e6572206f7220617070726f766560008201527f6400000000000000000000000000000000000000000000000000000000000000602082015250565b6000612991602183611f4c565b915061299c82612935565b604082019050919050565b600060208201905081810360008301526129c081612984565b9050919050565b7f4e487b7100000000000000000000000000000000000000000000000000000000600052601160045260246000fd5b6000612a0182611ffc565b9150612a0c83611ffc565b925082821015612a1f57612a1e6129c7565b5b828203905092915050565b7f4e487b7100000000000000000000000000000000000000000000000000000000600052603260045260246000fd5b7f4552433732313a20696e76616c696420746f6b656e2049440000000000000000600082015250565b6000612a8f601883611f4c565b9150612a9a82612a59565b602082019050919050565b60006020820190508181036000830152612abe81612a82565b9050919050565b7f4552433732313a2061646472657373207a65726f206973206e6f74206120766160008201527f6c6964206f776e65720000000000000000000000000000000000000000000000602082015250565b6000612b21602983611f4c565b9150612b2c82612ac5565b604082019050919050565b60006020820190508181036000830152612b5081612b14565b9050919050565b6000612b6282611ffc565b91507fffffffffffffffffffffffffffffffffffffffffffffffffffffffffffffffff821415612b9557612b946129c7565b5b600182019050919050565b600081905092915050565b6000612bb682611f41565b612bc08185612ba0565b9350612bd0818560208601611f5d565b80840191505092915050565b6000612be88285612bab565b9150612bf48284612bab565b91508190509392505050565b7f4552433732313a207472616e736665722066726f6d20696e636f72726563742060008201527f6f776e6572000000000000000000000000000000000000000000000000000000602082015250565b6000612c5c602583611f4c565b9150612c6782612c00565b604082019050919050565b60006020820190508181036000830152612c8b81612c4f565b9050919050565b7f4552433732313a207472616e7366657220746f20746865207a65726f2061646460008201527f7265737300000000000000000000000000000000000000000000000000000000602082015250565b6000612cee602483611f4c565b9150612cf982612c92565b604082019050919050565b60006020820190508181036000830152612d1d81612ce1565b9050919050565b6000612d2f82611ffc565b9150612d3a83611ffc565b9250827fffffffffffffffffffffffffffffffffffffffffffffffffffffffffffffffff03821115612d6f57612d6e6129c7565b5b828201905092915050565b7f4552433732313a20617070726f766520746f2063616c6c657200000000000000600082015250565b6000612db0601983611f4c565b9150612dbb82612d7a565b602082019050919050565b60006020820190508181036000830152612ddf81612da3565b9050919050565b7f4552433732313a207472616e7366657220746f206e6f6e20455243373231526560008201527f63656976657220696d706c656d656e7465720000000000000000000000000000602082015250565b6000612e42603283611f4c565b9150612e4d82612de6565b604082019050919050565b60006020820190508181036000830152612e7181612e35565b9050919050565b7f4e487b7100000000000000000000000000000000000000000000000000000000600052601260045260246000fd5b6000612eb282611ffc565b9150612ebd83611ffc565b925082612ecd57612ecc612e78565b5b828204905092915050565b6000612ee382611ffc565b9150612eee83611ffc565b925082612efe57612efd612e78565b5b828206905092915050565b600081519050919050565b600082825260208201905092915050565b6000612f3082612f09565b612f3a8185612f14565b9350612f4a818560208601611f5d565b612f5381611f90565b840191505092915050565b6000608082019050612f736000830187612091565b612f806020830186612091565b612f8d6040830185612127565b8181036060830152612f9f8184612f25565b905095945050505050565b600081519050612fb981611eb2565b92915050565b600060208284031215612fd557612fd4611e7c565b5b6000612fe384828501612faa565b91505092915050565b7f4552433732313a206d696e7420746f20746865207a65726f2061646472657373600082015250565b6000613022602083611f4c565b915061302d82612fec565b602082019050919050565b6000602082019050818103600083015261305181613015565b9050919050565b7f4552433732313a20746f6b656e20616c7265616479206d696e74656400000000600082015250565b600061308e601c83611f4c565b915061309982613058565b602082019050919050565b600060208201905081810360008301526130bd81613081565b905091905056fea2646970667358221220e270a820a9fc784930f13fc3cfba909c305be4370a3bef8a7a1f239e0837dd6464736f6c63430008090033",
  "immutableReferences": {},
  "source": "// SPDX-License-Identifier: MIT\r\npragma solidity ^0.8.0;\r\n\r\nimport \"@openzeppelin/contracts/token/ERC721/ERC721.sol\";\r\n\r\ncontract Land is ERC721 {\r\n    uint256 public cost = 1 ether;\r\n    uint256 public maxSupply = 5;\r\n    uint256 public totalSupply = 0;\r\n\r\n    struct Building {\r\n        string name;\r\n        address owner;\r\n        int256 posX; // interger\r\n        int256 posY;\r\n        int256 posZ;\r\n        uint256 sizeX; // unsigned integer\r\n        uint256 sizeY;\r\n        uint256 sizeZ;\r\n    }\r\n\r\n    Building[] public buildings; // array of buildings\r\n\r\n    constructor(\r\n        string memory _name,\r\n        string memory _symbol,\r\n        uint256 _cost\r\n    ) ERC721(_name, _symbol) {\r\n        // constructor of ERC721 contract with _name and _symbol\r\n        cost = _cost;\r\n        buildings.push(\r\n            Building(\"City Hall\", address(0x0), 0, 0, 0, 10, 10, 10)\r\n        );\r\n\r\n        buildings.push(Building(\"Stadium\", address(0x0), 0, 10, 0, 10, 5, 3));\r\n\r\n        buildings.push(\r\n            Building(\"University\", address(0x0), 0, -10, 0, 10, 5, 3)\r\n        );\r\n\r\n        buildings.push(\r\n            Building(\"Shoping Plaza 1\", address(0x0), 10, 0, 0, 5, 25, 5)\r\n        );\r\n\r\n        buildings.push(\r\n            Building(\"Shopping Plaza 2\", address(0x0), -10, 0, 0, 5, 25, 5)\r\n        );\r\n    }\r\n\r\n    function mint(uint256 _id) public payable {\r\n        uint256 supply = totalSupply;\r\n        require(supply <= maxSupply);\r\n        require(buildings[_id - 1].owner == address(0x0)); // the building is not owned yet so you can buy\r\n        require(msg.value >= cost); // the cost of the building is higher than the amount you send to the contract to buy it\r\n\r\n        buildings[_id - 1].owner = msg.sender;\r\n        totalSupply++;\r\n        _safeMint(msg.sender, _id);\r\n    }\r\n\r\n    function transferFrom(\r\n        // transfer ownership of a building to another address\r\n        address from,\r\n        address to,\r\n        uint256 tokenId\r\n    ) public override {\r\n        require(\r\n            _isApprovedOrOwner(_msgSender(), tokenId),\r\n            \"You are not the owner or approved\"\r\n        );\r\n\r\n        buildings[tokenId - 1].owner = to;\r\n        _transfer(from, to, tokenId);\r\n    }\r\n\r\n    function safeTransferFrom(\r\n        address from,\r\n        address to,\r\n        uint256 tokenId,\r\n        bytes memory _data\r\n    ) public override {\r\n        require(\r\n            _isApprovedOrOwner(from, tokenId),\r\n            \"You are not the owner or approved\"\r\n        ); // check if the sender is the owner or approved\r\n\r\n        buildings[tokenId - 1].owner = to;\r\n        _safeTransfer(from, to, tokenId, _data);\r\n    }\r\n\r\n    function getBuildings() public view returns (Building[] memory) {\r\n        // view function to get the buildings\r\n        return buildings;\r\n    }\r\n\r\n    function getBuilding(uint256 _id) public view returns (Building memory) {\r\n        // view function to get a building\r\n        return buildings[_id - 1];\r\n    }\r\n}\r\n",
  "sourcePath": "G:\\Desktop\\dev-v2\\metaverse-erc721\\src\\contracts\\Land.sol",
  "compiler": {
    "name": "solc",
    "version": "0.8.9+commit.e5eed63a.Emscripten.clang"
  },
  "schemaVersion": "3.4.7",
  "updatedAt": "2022-08-04T13:05:25.186Z",
  "networkType": "ethereum",
  "devdoc": {
    "kind": "dev",
    "methods": {
      "approve(address,uint256)": {
        "details": "See {IERC721-approve}."
      },
      "balanceOf(address)": {
        "details": "See {IERC721-balanceOf}."
      },
      "getApproved(uint256)": {
        "details": "See {IERC721-getApproved}."
      },
      "isApprovedForAll(address,address)": {
        "details": "See {IERC721-isApprovedForAll}."
      },
      "name()": {
        "details": "See {IERC721Metadata-name}."
      },
      "ownerOf(uint256)": {
        "details": "See {IERC721-ownerOf}."
      },
      "safeTransferFrom(address,address,uint256)": {
        "details": "See {IERC721-safeTransferFrom}."
      },
      "setApprovalForAll(address,bool)": {
        "details": "See {IERC721-setApprovalForAll}."
      },
      "supportsInterface(bytes4)": {
        "details": "See {IERC165-supportsInterface}."
      },
      "symbol()": {
        "details": "See {IERC721Metadata-symbol}."
      },
      "tokenURI(uint256)": {
        "details": "See {IERC721Metadata-tokenURI}."
      },
      "transferFrom(address,address,uint256)": {
        "details": "See {IERC721-transferFrom}."
      }
    },
    "version": 1
  },
  "userdoc": {
    "kind": "user",
    "methods": {},
    "version": 1
  }
}